:020000020000FC
:100000000FEF0AB901E00BB903E008B906B10370BC
:1000100069F1033089F0013011F00230F1F009B1DB
:10002000013029F006950BB90130E1F7EFCF000F51
:100030000BB90038B9F3FBCF09B1013039F006959F
:100040000BB90E9450000130D1F7E0CF000F0BB97F
:100050000E945000003899F3F9CF01E80BB902E48F
:100060000BB904E20BB908E10BB9D0CF08E10BB929
:1000700004E20BB902E40BB901E80BB9C7CF14E0F5
:100080002AEF38EC00000000000000000000000033
:1000900000003A9541F42A9529F41A9511F408952F
:1000A00012E02AEF38EC0000000000000000000021
:1000B000000000003A95B9F72A95A1F71A9589F73B
:0200C0000895A1
:00000001FF
